{
  "contractName": "GoldMine",
  "abi": [
    {
      "constant": true,
      "inputs": [],
      "name": "getCosts",
      "outputs": [
        {
          "name": "",
          "type": "uint256"
        }
      ],
      "payable": false,
      "stateMutability": "view",
      "type": "function"
    },
    {
      "constant": true,
      "inputs": [
        {
          "name": "idx",
          "type": "uint8"
        }
      ],
      "name": "getCost",
      "outputs": [
        {
          "name": "resource",
          "type": "address"
        },
        {
          "name": "amount",
          "type": "uint256"
        }
      ],
      "payable": false,
      "stateMutability": "view",
      "type": "function"
    },
    {
      "constant": true,
      "inputs": [],
      "name": "getAvailableResource",
      "outputs": [
        {
          "name": "",
          "type": "uint256"
        }
      ],
      "payable": false,
      "stateMutability": "view",
      "type": "function"
    },
    {
      "constant": true,
      "inputs": [],
      "name": "DAY_IN_SECONDS",
      "outputs": [
        {
          "name": "",
          "type": "uint256"
        }
      ],
      "payable": false,
      "stateMutability": "view",
      "type": "function"
    },
    {
      "constant": false,
      "inputs": [],
      "name": "buildInstance",
      "outputs": [],
      "payable": false,
      "stateMutability": "nonpayable",
      "type": "function"
    },
    {
      "constant": true,
      "inputs": [],
      "name": "owner",
      "outputs": [
        {
          "name": "",
          "type": "address"
        }
      ],
      "payable": false,
      "stateMutability": "view",
      "type": "function"
    },
    {
      "constant": false,
      "inputs": [
        {
          "name": "resources",
          "type": "address[]"
        },
        {
          "name": "amounts",
          "type": "uint256[]"
        }
      ],
      "name": "setCost",
      "outputs": [],
      "payable": false,
      "stateMutability": "nonpayable",
      "type": "function"
    },
    {
      "constant": true,
      "inputs": [],
      "name": "getInstances",
      "outputs": [
        {
          "name": "",
          "type": "uint256"
        }
      ],
      "payable": false,
      "stateMutability": "view",
      "type": "function"
    },
    {
      "constant": true,
      "inputs": [
        {
          "name": "idx",
          "type": "uint256"
        }
      ],
      "name": "getInstance",
      "outputs": [
        {
          "name": "buildTime",
          "type": "uint256"
        },
        {
          "name": "lastMinedTime",
          "type": "uint256"
        },
        {
          "name": "mined",
          "type": "uint256"
        }
      ],
      "payable": false,
      "stateMutability": "view",
      "type": "function"
    },
    {
      "constant": false,
      "inputs": [
        {
          "name": "newOwner",
          "type": "address"
        }
      ],
      "name": "transferOwnership",
      "outputs": [],
      "payable": false,
      "stateMutability": "nonpayable",
      "type": "function"
    },
    {
      "anonymous": false,
      "inputs": [],
      "name": "CostSet",
      "type": "event"
    },
    {
      "anonymous": false,
      "inputs": [],
      "name": "InstanceBuild",
      "type": "event"
    },
    {
      "anonymous": false,
      "inputs": [
        {
          "indexed": false,
          "name": "resource",
          "type": "address"
        }
      ],
      "name": "BuildRejected",
      "type": "event"
    },
    {
      "anonymous": false,
      "inputs": [
        {
          "indexed": true,
          "name": "previousOwner",
          "type": "address"
        },
        {
          "indexed": true,
          "name": "newOwner",
          "type": "address"
        }
      ],
      "name": "OwnershipTransferred",
      "type": "event"
    }
  ],
  "bytecode": "0x6060604052336000806101000a81548173ffffffffffffffffffffffffffffffffffffffff021916908373ffffffffffffffffffffffffffffffffffffffff160217905550610fee806100536000396000f3006060604052600436106100a4576000357c0100000000000000000000000000000000000000000000000000000000900463ffffffff16806303075018146100a9578063375f2b96146100d25780635c04e3c81461013f5780635fdc628114610168578063797c40f8146101915780638da5cb5b146101a6578063bd7e1c93146101fb578063d35fdd7914610295578063ebd348de146102be578063f2fde38b14610303575b600080fd5b34156100b457600080fd5b6100bc61033c565b6040518082815260200191505060405180910390f35b34156100dd57600080fd5b6100f6600480803560ff16906020019091905050610349565b604051808373ffffffffffffffffffffffffffffffffffffffff1673ffffffffffffffffffffffffffffffffffffffff1681526020018281526020019250505060405180910390f35b341561014a57600080fd5b6101526103d8565b6040518082815260200191505060405180910390f35b341561017357600080fd5b61017b610482565b6040518082815260200191505060405180910390f35b341561019c57600080fd5b6101a4610489565b005b34156101b157600080fd5b6101b96108c8565b604051808273ffffffffffffffffffffffffffffffffffffffff1673ffffffffffffffffffffffffffffffffffffffff16815260200191505060405180910390f35b341561020657600080fd5b610293600480803590602001908201803590602001908080602002602001604051908101604052809392919081815260200183836020028082843782019150505050505091908035906020019082018035906020019080806020026020016040519081016040528093929190818152602001838360200280828437820191505050505050919050506108ed565b005b34156102a057600080fd5b6102a8610bed565b6040518082815260200191505060405180910390f35b34156102c957600080fd5b6102df6004808035906020019091905050610c37565b60405180848152602001838152602001828152602001935050505060405180910390f35b341561030e57600080fd5b61033a600480803573ffffffffffffffffffffffffffffffffffffffff16906020019091905050610d39565b005b6000600280549050905090565b6000808260ff166002805490508110151561036357600080fd5b60028460ff1681548110151561037557fe5b906000526020600020906002020160000160009054906101000a900473ffffffffffffffffffffffffffffffffffffffff1660028560ff168154811015156103b957fe5b9060005260206000209060020201600101548191509250925050915091565b60008060008060009250600091505b6103ef610bed565b82101561047c57600160003373ffffffffffffffffffffffffffffffffffffffff1673ffffffffffffffffffffffffffffffffffffffff1681526020019081526020016000208281548110151561044257fe5b9060005260206000209060030201905061046d61045e82610e8e565b84610e9990919063ffffffff16565b925081806001019250506103e7565b50505090565b6201518081565b60008060008060006002805490501115156104a357600080fd5b5b60028054905084101561068a576002848154811015156104c057fe5b9060005260206000209060020201925082600101548360000160009054906101000a900473ffffffffffffffffffffffffffffffffffffffff1673ffffffffffffffffffffffffffffffffffffffff1663dd62ed3e33306000604051602001526040518363ffffffff167c0100000000000000000000000000000000000000000000000000000000028152600401808373ffffffffffffffffffffffffffffffffffffffff1673ffffffffffffffffffffffffffffffffffffffff1681526020018273ffffffffffffffffffffffffffffffffffffffff1673ffffffffffffffffffffffffffffffffffffffff16815260200192505050602060405180830381600087803b15156105d057600080fd5b6102c65a03f115156105e157600080fd5b50505060405180519050101561067d577f6ab4aca46059338cf29631d8d262e6539c8a8b85eade8c41a211d3ef2bbc7ea68360000160009054906101000a900473ffffffffffffffffffffffffffffffffffffffff16604051808273ffffffffffffffffffffffffffffffffffffffff1673ffffffffffffffffffffffffffffffffffffffff16815260200191505060405180910390a16108c2565b83806001019450506104a4565b5b6002805490508210156107f1576002828154811015156106a757fe5b906000526020600020906002020190508060000160009054906101000a900473ffffffffffffffffffffffffffffffffffffffff1673ffffffffffffffffffffffffffffffffffffffff166323b872dd333084600101546000604051602001526040518463ffffffff167c0100000000000000000000000000000000000000000000000000000000028152600401808473ffffffffffffffffffffffffffffffffffffffff1673ffffffffffffffffffffffffffffffffffffffff1681526020018373ffffffffffffffffffffffffffffffffffffffff1673ffffffffffffffffffffffffffffffffffffffff1681526020018281526020019350505050602060405180830381600087803b15156107be57600080fd5b6102c65a03f115156107cf57600080fd5b5050506040518051905015156107e457600080fd5b818060010192505061068b565b600160003373ffffffffffffffffffffffffffffffffffffffff1673ffffffffffffffffffffffffffffffffffffffff16815260200190815260200160002080548060010182816108429190610eb7565b91600052602060002090600302016000606060405190810160405280428152602001428152602001600081525090919091506000820151816000015560208201518160010155604082015181600201555050507f1b2ce2b7c4ea2cc2ebfd0cbb6603e7d81e3871365a1f89c17b762a9f52c270d960405160405180910390a15b50505050565b6000809054906101000a900473ffffffffffffffffffffffffffffffffffffffff1681565b60008060009054906101000a900473ffffffffffffffffffffffffffffffffffffffff1673ffffffffffffffffffffffffffffffffffffffff163373ffffffffffffffffffffffffffffffffffffffff1614151561094a57600080fd5b600060028054905014151561095e57600080fd5b82518251808214151561097057600080fd5b600092505b8451831015610bba57600073ffffffffffffffffffffffffffffffffffffffff1685848151811015156109a457fe5b9060200190602002015173ffffffffffffffffffffffffffffffffffffffff16141515156109d157600080fd5b600084848151811015156109e157fe5b906020019060200201511115156109f757600080fd5b8483815181101515610a0557fe5b9060200190602002015173ffffffffffffffffffffffffffffffffffffffff1663eaa382c2306000604051602001526040518263ffffffff167c0100000000000000000000000000000000000000000000000000000000028152600401808273ffffffffffffffffffffffffffffffffffffffff1673ffffffffffffffffffffffffffffffffffffffff168152602001915050602060405180830381600087803b1515610ab157600080fd5b6102c65a03f11515610ac257600080fd5b505050604051805190501515610ad757600080fd5b60028054806001018281610aeb9190610ee9565b9160005260206000209060020201600060408051908101604052808988815181101515610b1457fe5b9060200190602002015173ffffffffffffffffffffffffffffffffffffffff1681526020018888815181101515610b4757fe5b90602001906020020151815250909190915060008201518160000160006101000a81548173ffffffffffffffffffffffffffffffffffffffff021916908373ffffffffffffffffffffffffffffffffffffffff160217905550602082015181600101555050508280600101935050610975565b7f84255839c5d0187a9be2f837fa74652a62da8d4246fd133cdacb7d7af0a8b14160405160405180910390a15050505050565b6000600160003373ffffffffffffffffffffffffffffffffffffffff1673ffffffffffffffffffffffffffffffffffffffff16815260200190815260200160002080549050905090565b6000806000610c44610f1b565b84600160003373ffffffffffffffffffffffffffffffffffffffff1673ffffffffffffffffffffffffffffffffffffffff1681526020019081526020016000208054905081101515610c9557600080fd5b600160003373ffffffffffffffffffffffffffffffffffffffff1673ffffffffffffffffffffffffffffffffffffffff16815260200190815260200160002086815481101515610ce157fe5b9060005260206000209060030201606060405190810160405290816000820154815260200160018201548152602001600282015481525050915081600001518260200151836040015194509450945050509193909250565b6000809054906101000a900473ffffffffffffffffffffffffffffffffffffffff1673ffffffffffffffffffffffffffffffffffffffff163373ffffffffffffffffffffffffffffffffffffffff16141515610d9457600080fd5b600073ffffffffffffffffffffffffffffffffffffffff168173ffffffffffffffffffffffffffffffffffffffff1614151515610dd057600080fd5b8073ffffffffffffffffffffffffffffffffffffffff166000809054906101000a900473ffffffffffffffffffffffffffffffffffffffff1673ffffffffffffffffffffffffffffffffffffffff167f8be0079c531659141344cd1fd0a4f28419497f9722a3daafe3b4186f6b6457e060405160405180910390a3806000806101000a81548173ffffffffffffffffffffffffffffffffffffffff021916908373ffffffffffffffffffffffffffffffffffffffff16021790555050565b600060019050919050565b6000808284019050838110151515610ead57fe5b8091505092915050565b815481835581811511610ee457600302816003028360005260206000209182019101610ee39190610f3d565b5b505050565b815481835581811511610f1657600202816002028360005260206000209182019101610f159190610f74565b5b505050565b6060604051908101604052806000815260200160008152602001600081525090565b610f7191905b80821115610f6d576000808201600090556001820160009055600282016000905550600301610f43565b5090565b90565b610fbf91905b80821115610fbb57600080820160006101000a81549073ffffffffffffffffffffffffffffffffffffffff0219169055600182016000905550600201610f7a565b5090565b905600a165627a7a7230582041b249527e87f7fb0f0b2d7ec971248a0451e59d9037bdbe9c936777a1360be90029",
  "source": "pragma solidity 0.4.19;\n\nimport {Mine} from \"./Mine.sol\";\n\ncontract GoldMine is Mine {\n\n    uint256 constant public DAY_IN_SECONDS = 86400;\n\n    function calculateMined(MineInstance storage mineInstance) internal view returns (uint256) {\n    //return now.sub(mineInstance.lastMiningTime).div(DAY_IN_SECONDS);\n    return 1;\n    }\n\n}\n",
  "sourcePath": "/home/kruligh/src/dom/blocklife-contracts/contracts/GoldMine.sol",
  "compiler": {
    "name": "solc",
    "version": "0.4.19+commit.c4cbbb05.Emscripten.clang"
  },
  "schemaVersion": "2.0.0",
  "updatedAt": "2018-03-07T08:38:17.129Z"
}